S00E00004B6C617665722E73726563B1
S11300000C944C000C9469000C9469000C946900E5
S11300100C9469000C9469000C9469000C946900B8
S11300200C9469000C9469000C9469000C946900A8
S11300300C9469000C9469000C9469000C94690098
S11300400C9469000C946B000C9469000C94690086
S11300500C9469000C9469000C9469000C94690078
S11300600C9469000C947D000C9469000C94690054
S11300700C9469000C9469000C9469000C94690058
S11300800C9469000C9469000C9469000C94690048
S11300900C9469000C94690011241FBECFEFD0E1C9
S11300A0DEBFCDBF11E0A0E0B1E0ECE6F2E002C0BB
S11300B005900D92A233B107D9F721E0A2E3B1E094
S11300C001C01D92A333B207E1F70E94C4000C944F
S11300D034010C9400001F920F920FB60F9211245A
S11300E08F939F9393B180E4892785B99F918F91D2
S11300F00F900FBE0F901F9018951F920F920FB67E
S11301000F9211248F938091CE00803319F41092B2
S1130110320102C0809332018F910F900FBE0F9075
S11301201F9018958156893148F4E82FF0E0EE0FBE
S1130130FF1FE050FF4F80819181089580E090E09F
S113014008958CE090E09093CD008093CC0088E9F2
S11301508093C90086E08093CA00089580E8809364
S1130160800088E08093810082E080936F0008958E
S1130170E1E8F0E08081816080830895E1E8F0E0C7
S113018080818E7F808308950E94A1000E94AE002A
S113019078948FEF81B980E484B990E8C92E94E80B
S11301A0D92E9EE1E92EF12C8091320182B9809101
S11301B032010E949200EC01892B19F40E94BE00C6
S11301C0F3CF0E94B8009E01220F331F032E000CB0
S11301D0440B550BC701B6010E94F300309389000C
S11301E020938800E1CF052E97FB1EF400940E9413
S11301F00A0157FD07D00E94120107FC03D04EF4F8
S11302000C940A0150954095309521953F4F4F4FDE
S11302105F4F089590958095709561957F4F8F4FAE
S11302209F4F0895A1E21A2EAA1BBB1BFD010DC00E
S1130230AA1FBB1FEE1FFF1FA217B307E407F50792
S113024020F0A21BB30BE40BF50B661F771F881F6E
S1130250991F1A9469F760957095809590959B0104
S10F0260AC01BD01CF010895F894FFCF5C
S113026C050100000000490137015D018801B80156
S113027C0000ED010B024B02000000002A026E028A
S113028C0000000025017201D201000015010000DC
S105029C9F01BC
S9030000FC
