S00E00004B6C617665722E73726563B1
S11300000C944C000C945E000C945E000C945E0006
S11300100C945E000C945E000C945E000C945E00E4
S11300200C945E000C945E000C945E000C945E00D4
S11300300C945E000C945E000C945E000C945E00C4
S11300400C945E000C945E000C945E000C945E00B4
S11300500C945E000C945E000C945E000C945E00A4
S11300600C945E000C9460000C945E000C945E0092
S11300700C945E000C945E000C945E000C945E0084
S11300800C945E000C945E000C945E000C945E0074
S11300900C945E000C945E0011241FBECFEFD0E1DF
S11300A0DEBFCDBF21E0A0E0B1E001C01D92A130D0
S11300B0B207E1F70E9483000C948D000C940000B9
S11300C01F920F920FB60F9211248F938091CE003E
S11300D0803321F481E08093000102C08093000109
S11300E08F910F900FBE0F901F9018958CE090E0A9
S11300F09093CD008093CC0088E98093C90086E07A
S11301008093CA0008950E94760078948FEF81B995
S111011082B98091000182B9FCCFF894FFCF30
S9030000FC
