:100000000C94E2000C94FF000C94FF000C94FF0091
:100010000C94FF000C94FF000C94FF000C94FF0064
:100020000C94FF000C94FF000C94FF000C94FF0054
:100030000C94FF000C94FF000C94FF000C94FF0044
:100040000C94FF000C9401010C94FF000C94FF0031
:100050000C94FF000C94FF000C94FF000C94FF0024
:100060000C94FF000C9436010C94FF000C94FF00DC
:100070000C94FF000C94FF000C94FF000C94FF0004
:100080000C94FF000C94FF000C94FF000C94FF00F4
:100090000C94FF000C94FF006601DD01DD0182017C
:1000A0007B0189019701A501DD01B301BA01C801F6
:1000B000DD01DD01C101CF01DD01DD017401900130
:1000C000AC01DD016D01DD019E01DD01DD01DD0120
:1000D000DD01DD01DD01DD01DD01DD01DD01DD0130
:1000E000DD01DD01DD01DD01DD01DD01DD01DD0120
:1000F000DD01DD01DD01DD01DD01DD01DD01DD0110
:10010000DD01DD01DD01DD01DD01DD01DD01DD01FF
:10011000DD01DD01DD01DD01DD01DD01DD01DD01EF
:10012000DD01DD01DD01DD01DD01DD01DD01DD01DF
:10013000DD01DD01DD01DD01DD01DD01DD01DD01CF
:10014000DD01DD01DD01DD01DD01DD01DD01DD01BF
:10015000DD01DD01DD01DD01DD01DD01DD01DD01AF
:10016000DD01DD01DD01DD01DD01DD01DD01DD019F
:10017000DD01DD01DD01DD01DD01DD01DD01DD018F
:10018000DD01DD01DD01DD01DD01DD01DD01DD017F
:10019000DD01DD01DD01DD01DD01DD01DD01DD016F
:1001A000DD01DD01DD01DD01DD01DD01DD01DD015F
:1001B000DD01DD01DD01DD01DD01DD01DD01DD014F
:1001C000DD01D60111241FBECFEFD0E1DEBFCDBFD0
:1001D00011E0A0E0B1E0EEEFF4E002C005900D9276
:1001E000A230B107D9F721E0A2E0B1E001C01D9231
:1001F000A430B207E1F70E94F9010C947D020C943F
:1002000000001F920F920FB60F9211248F939F93AD
:1002100093B180E4892785B99F918F910F900FBE8C
:100220000F901F9018958CE090E09093CD008093F4
:10023000CC0088E98093C90086E08093CA000895C5
:1002400080E88093800088E08093810082E0809342
:100250006F000895E1E8F0E0808181608083089577
:10026000E1E8F0E080818E7F808308951F920F92F5
:100270000FB60F9211242F933F934F935F936F9379
:100280007F938F939F93AF93BF93EF93FF9380914F
:10029000CE00803331F481E0809303010E9430016D
:1002A00097C0909103019093020180930301E09124
:1002B00003018E2F90E0FC01E156F109E639F105CA
:1002C00008F07BC0E45BFF4F0C94550285E091E0A1
:1002D000909301018093000175C085E191E09093B6
:1002E0000101809300016EC085E291E090930101CD
:1002F0008093000167C087E391E0909301018093B0
:10030000000160C089E491E09093010180930001B5
:1003100059C08DE591E0909301018093000152C096
:1003200082E791E090930101809300014BC088E83F
:1003300091E0909301018093000144C08FE991E026
:1003400090930101809300013DC088EB91E0909370
:1003500001018093000136C082ED91E0909301018C
:10036000809300012FC08DEE91E090930101809366
:10037000000128C08BE092E090930101809300017E
:1003800021C08AE292E090930101809300011AC09B
:100390008BE492E0909301018093000113C08EE6FC
:1003A00092E090930101809300010CC083E992E0F8
:1003B000909301018093000105C081E080930301C7
:1003C0000E94300180910301813011F00E942A01C6
:1003D000FF91EF91BF91AF919F918F917F916F911D
:1003E0005F914F913F912F910F900FBE0F901F90F3
:1003F00018950E9413010E94200120910001309164
:100400000101220F331F032E000C440B550B60E833
:1004100074E88EE190E00E943602309389002093C8
:10042000880078948FEF81B982B980E484B90F2E67
:10043000F0E8CF2EF4E8DF2EFEE1EF2EF12CF02DC8
:10044000C8E8D0E08091030182B920910001309189
:100450000101220F331F032E000C440B550BC70163
:10046000B6010E94360239832883ECCF052E97FB14
:100470001EF400940E944D0257FD07D00E945B02BB
:1004800007FC03D04EF40C944D02509540953095E6
:1004900021953F4F4F4F5F4F0895909580957095F0
:1004A00061957F4F8F4F9F4F0895EE0FFF1F05906F
:1004B000F491E02D0994A1E21A2EAA1BBB1BFD01A9
:1004C0000DC0AA1FBB1FEE1FFF1FA217B307E40733
:1004D000F50720F0A21BB30BE40BF50B661F771F8B
:1004E000881F991F1A9469F760957095809590956B
:0E04F0009B01AC01BD01CF010895F894FFCF30
:0204FE004901B2
:00000001FF
